{"abi":[{"type":"function","name":"logGameEnd","inputs":[{"name":"gameId","type":"bytes32","internalType":"bytes32"},{"name":"player","type":"address","internalType":"address"},{"name":"won","type":"bool","internalType":"bool"},{"name":"rowsCompleted","type":"uint8","internalType":"uint8"},{"name":"finalMultiplier","type":"uint256","internalType":"uint256"},{"name":"virtualPayout","type":"uint256","internalType":"uint256"}],"outputs":[],"stateMutability":"nonpayable"},{"type":"function","name":"logGameStart","inputs":[{"name":"gameId","type":"bytes32","internalType":"bytes32"},{"name":"player","type":"address","internalType":"address"},{"name":"virtualBet","type":"uint256","internalType":"uint256"}],"outputs":[],"stateMutability":"nonpayable"},{"type":"function","name":"logTilePick","inputs":[{"name":"gameId","type":"bytes32","internalType":"bytes32"},{"name":"row","type":"uint8","internalType":"uint8"},{"name":"tilesInRow","type":"uint8","internalType":"uint8"},{"name":"playerChoice","type":"uint8","internalType":"uint8"},{"name":"bombPosition","type":"uint8","internalType":"uint8"},{"name":"survived","type":"bool","internalType":"bool"},{"name":"currentMultiplier","type":"uint256","internalType":"uint256"}],"outputs":[],"stateMutability":"nonpayable"},{"type":"event","name":"GameEnded","inputs":[{"name":"gameId","type":"bytes32","indexed":true,"internalType":"bytes32"},{"name":"player","type":"address","indexed":true,"internalType":"address"},{"name":"won","type":"bool","indexed":false,"internalType":"bool"},{"name":"rowsCompleted","type":"uint8","indexed":false,"internalType":"uint8"},{"name":"finalMultiplier","type":"uint256","indexed":false,"internalType":"uint256"},{"name":"virtualPayout","type":"uint256","indexed":false,"internalType":"uint256"}],"anonymous":false},{"type":"event","name":"GameStarted","inputs":[{"name":"gameId","type":"bytes32","indexed":true,"internalType":"bytes32"},{"name":"player","type":"address","indexed":true,"internalType":"address"},{"name":"virtualBet","type":"uint256","indexed":false,"internalType":"uint256"}],"anonymous":false},{"type":"event","name":"TilePicked","inputs":[{"name":"gameId","type":"bytes32","indexed":true,"internalType":"bytes32"},{"name":"row","type":"uint8","indexed":false,"internalType":"uint8"},{"name":"tilesInRow","type":"uint8","indexed":false,"internalType":"uint8"},{"name":"playerChoice","type":"uint8","indexed":false,"internalType":"uint8"},{"name":"bombPosition","type":"uint8","indexed":false,"internalType":"uint8"},{"name":"survived","type":"bool","indexed":false,"internalType":"bool"},{"name":"currentMultiplier","type":"uint256","indexed":false,"internalType":"uint256"}],"anonymous":false}],"bytecode":{"object":"0x608060405234801561000f575f80fd5b506105568061001d5f395ff3fe608060405234801561000f575f80fd5b506004361061003f575f3560e01c806364d9ddc2146100435780639cbb15be1461005f578063c6dab9271461007b575b5f80fd5b61005d60048036038101906100589190610257565b610097565b005b61007960048036038101906100749190610312565b6100eb565b005b610095600480360381019061009091906103af565b610136565b005b8173ffffffffffffffffffffffffffffffffffffffff16837fdfa8250c7fc9ba1f4787aae98a3cca3bbc2fcc8260fb92012bb84b2f96eea67a836040516100de9190610447565b60405180910390a3505050565b867f03fc4322cfba50e86ebb075b54b14138dfe686f4bc1ad461a8fd6cd5b5dd0c4e8787878787876040516101259695949392919061047e565b60405180910390a250505050505050565b8473ffffffffffffffffffffffffffffffffffffffff16867f46d18995a79d3987c67af7d6a52264bee63fd52d22a2c1b1569f245ee8944a868686868660405161018394939291906104dd565b60405180910390a3505050505050565b5f80fd5b5f819050919050565b6101a981610197565b81146101b3575f80fd5b50565b5f813590506101c4816101a0565b92915050565b5f73ffffffffffffffffffffffffffffffffffffffff82169050919050565b5f6101f3826101ca565b9050919050565b610203816101e9565b811461020d575f80fd5b50565b5f8135905061021e816101fa565b92915050565b5f819050919050565b61023681610224565b8114610240575f80fd5b50565b5f813590506102518161022d565b92915050565b5f805f6060848603121561026e5761026d610193565b5b5f61027b868287016101b6565b935050602061028c86828701610210565b925050604061029d86828701610243565b9150509250925092565b5f60ff82169050919050565b6102bc816102a7565b81146102c6575f80fd5b50565b5f813590506102d7816102b3565b92915050565b5f8115159050919050565b6102f1816102dd565b81146102fb575f80fd5b50565b5f8135905061030c816102e8565b92915050565b5f805f805f805f60e0888a03121561032d5761032c610193565b5b5f61033a8a828b016101b6565b975050602061034b8a828b016102c9565b965050604061035c8a828b016102c9565b955050606061036d8a828b016102c9565b945050608061037e8a828b016102c9565b93505060a061038f8a828b016102fe565b92505060c06103a08a828b01610243565b91505092959891949750929550565b5f805f805f8060c087890312156103c9576103c8610193565b5b5f6103d689828a016101b6565b96505060206103e789828a01610210565b95505060406103f889828a016102fe565b945050606061040989828a016102c9565b935050608061041a89828a01610243565b92505060a061042b89828a01610243565b9150509295509295509295565b61044181610224565b82525050565b5f60208201905061045a5f830184610438565b92915050565b610469816102a7565b82525050565b610478816102dd565b82525050565b5f60c0820190506104915f830189610460565b61049e6020830188610460565b6104ab6040830187610460565b6104b86060830186610460565b6104c5608083018561046f565b6104d260a0830184610438565b979650505050505050565b5f6080820190506104f05f83018761046f565b6104fd6020830186610460565b61050a6040830185610438565b6105176060830184610438565b9594505050505056fea2646970667358221220959ddf5e92ec04277a72dc284759b66b1797d67f8033ab5f2c767985b1ec1fb464736f6c63430008140033","linkReferences":{}},"methodIdentifiers":{"logGameEnd(bytes32,address,bool,uint8,uint256,uint256)":"c6dab927","logGameStart(bytes32,address,uint256)":"64d9ddc2","logTilePick(bytes32,uint8,uint8,uint8,uint8,bool,uint256)":"9cbb15be"},"id":0}